:0204BE00CEF876
:1004C0005EFE1AAE6EF86EF4008825FA44D0017014
:1004D00006C37FE02EF42EF8EAA11EFE8EF200780D
:1004E00005C8500400056406000707CE017802C95C
:1004F00000F0D80514E490060107A5F045F201F0DC
:10050000F00867F002C200002ECE45F02B912A9031
:1005100046F006F046F00A0229F005F2A5F001F0D7
:10052000F00867F002C201001ECE45F046F046F02A
:100530002B912A900A0229F005F2A5F001F0F008AB
:1005400067F002C202000FCE45F046F046F02B9154
:100550002A9046F00A0229F005F2A5F001F0F00811
:1005600067F03DC20300008200001190D2EF00E06E
:100570001390D4EF1390D6EF1390D8EF1390DAEFD7
:100580001390DCEF1390DEEF1190E0EF1190E1EFAC
:1005900082A0A4F2D2A059F2D2A05AF2D0A05BF26B
:1005A000D2A05CF2D0A05DF2E2A059F2E2A05AF231
:1005B000E0A05BF2E2A05CF2E0A05DF280801A9025
:1005C00020812A91038144D04A90138001301190F8
:1005D000A4F200E000F0D4047EE000F0D4047DE05A
:0405E00000F0D4044F
:08090800CEF85EFC5EF41090D5
:10091000A5F200811090E1EF0EC901701CC90270B0
:1009200002C800F02A0A037002C800F0CA0A047064
:1009300002C800F01E0B1290DEEF09C905F400E0BA
:100940001390DEEF1092E0EF1290DCEF43F001E045
:100950001EF41EFC8EF210800420047017C80000E4
:100960001190E1EF02001190E0EF00001190A3F26E
:100970001290DEEF09C905F400E01390DEEF10924B
:10098000E0EF1290DCEF43F001E0E2CE10800220B5
:1009900002700AC800001190E1EF01001190E0EF31
:1009A00002001190A3F23ECE1290D6EF15C90200BC
:1009B0001190E1EF129CD4EFC0901190A2F2C5F01B
:1009C00081E01390D4EF1290D6EFFFE01390D6EFB2
:1009D00001001190A3F226CE1090D2EF0FC90400AF
:1009E0001190E1EF01041290DAEFFFE01292DCEFD8
:1009F00027F001C881041194A3F214CE03001190D2
:100A0000E1EF129CD8EFC0901190A2F2C5F081E006
:100A10001390D8EF1290DCEF81E01390DCEF01002F
:100A20001190A3F200E000F0500910800220027043
:100A30000BC800001190E1EF01001190E0EF0200FF
:100A40001190A3F200F0C40A1290D6EF12C9129CC2
:100A5000D4EFC0901190A2F2C5F081E01390D4EFD2
:100A60001290D6EFFFE01390D6EF01001190A3F2A1
:100A700029CE1290DAEF07C800001190E1EF0200D2
:100A80001190A3F21FCE1090D2EF08C9010011906F
:100A9000E1EF80A0A1F2A0A0A3F214CE0300119078
:100AA000E1EF129CD8EFC0901190A2F2C5F081E066
:100AB0001390D8EF1290DCEF81E01390DCEF01008F
:100AC0001190A3F200E000F05009108002200270A3
:100AD00008C800001190E1EF01001190E0EF020062
:100AE00019CE1290DAEF1292DCEF27F00FC9129CA8
:100AF000D8EFC0901190A2F2C5F081E01390D8EF2A
:100B000025F081E01390DCEF010004CE000011908D
:100B1000E1EF02001190A3F200E000F05009129CF6
:020B2000D8EF0C
:0E0B22001090A0F2C1901290D8EF81E01390D5
:100B3000D8EF1290DCEF81E01390DCEF1290DAEF47
:100B40001292DCEF27F008C90104FFE027F001C88A
:100B500081041194A3F206CE00001190E1EF02008F
:0A0B60001190A3F200E000F050092C
:08007800000000000000000080
:08008000000000000000000078
:0206BE005EF4E8
:1006C0000000119011F0119012F0119013F01190A0
:1006D00014F0119015F0119016F0119017F0119080
:1006E00018F0119019F011901AF011901BF0119060
:1006F0001CF011901DF011901EF011901FF000E4FD
:1007000045F046F0F802030309A292EF81E41F745A
:080710000055F6C51EF41FFEA2
:0403D80008ED1FFE0F
:0403D400F7EB1FFE26
:0E03A2006EF8008825FA1F7003C17FE02EF868
:1003B0001FFE25F206C98080000106F009AA92EF0F
:1003C00007CE8080000106F0F802030309A292EF35
:0403D00000E0EDCE8E
:020006000FFEEB
:0203F8001FFEE6
:0A06A000000106F008A092EF02F03E
:020C4E00CEFFD7
:100C50006EF0109000F04EF0000001F0A0060EF0D3
:080C6000119000F02EF08EFF50
:060BDA00CEF96EF0109050
:100BE00000F04EF0010001F0A0060EF0119000F0B0
:060BF0002EF08EF90FFE4D
:0801F800CEF96EF0109000F04A
:100200004EF0020001F0A0060EF0119000F02EF06A
:040210008EF90FFE56
:0C021400CEF96EF0109000F04EF00300E8
:1002200001F0A0060EF0119000F02EF08EF90FFEF6
:0E0BA200CEF96EF0109000F04EF0040001F05D
:0E0BB000A0060EF0119000F02EF08EF90FFE50
:0800C800CEF96EF0109000F07B
:1000D0004EF0050001F0A0060EF0119000F02EF099
:0400E0008EF90FFE88
:0C00E400CEF96EF0109000F04EF0060017
:1000F00001F0A0060EF0119000F02EF08EF90FFE28
:060B6A00CEF96EF01090C0
:100B700000F04EF0070001F0A0060EF0119000F01A
:060B80002EF08EF90FFEBD
:0A0B8600CEF96EF0109000F04EF072
:100B9000080001F0A0060EF0119000F02EF08EF982
:020BA0000FFE46
:040CBC00CEF96EF00F
:100CC000109000F04EF0090001F0A0060EF0119017
:080CD00000F02EF08EF90FFE7A
:0A0C1600CEF96EF0109000F04EF0E1
:100C20000A0001F0A0060EF0119000F02EF08EF9EF
:020C30000FFEB5
:100CA000CEF96EF0109000F04EF00B0001F0A006AF
:0C0CB0000EF0119000F02EF08EF90FFEF7
:080CD800CEF96EF0109000F05F
:100CE0004EF00C0001F0A0060EF0119000F02EF076
:040CF0008EF90FFE6C
:0E028200CEF96EF0109000F04EF00D0001F07D
:0E029000A0060EF0119000F02EF08EF90FFE79
:02029E00CEF997
:1002A0006EF0109000F04EF00E0001F0A0060EF07F
:0A02B000119000F02EF08EF90FFE01
:0A035600CEF96EF0109000F04EF0AA
:100360000F0001F0A0060EF0119000F02EF08EF9B3
:020370000FFE7E
:0E037200CEF96EF0109000F04EF0100001F089
:0E038000A0060EF0119000F02EF08EF90FFE88
:0C025400CEF96EF0109000F04EF011009A
:1002600001F0A0060EF0119000F02EF08EF90FFEB6
:10023000CEF96EF0109000F04EF0120001F0A00622
:0C0240000EF0119000F02EF08EF90FFE71
:0602BA00CEF96EF0109079
:1002C00000F04EF0130001F0A0060EF0119000F0C7
:0602D0002EF08EF90FFE76
:080C6800CEF96EF0109000F0CF
:100C70004EF0140001F0A0060EF0119000F02EF0DE
:040C80008EF90FFEDC
:0A02D600CEF96EF0109000F04EF02B
:1002E000150001F0A0060EF0119000F02EF08EF92E
:0202F0000FFEFF
:0C0C8400CEF96EF0109000F04EF016005B
:100C900001F0A0060EF0119000F02EF08EF90FFE7C
:0C068400CEF96EF0109000F04EF0170060
:1006900001F0A0060EF0119000F02EF08EF90FFE82
:0C05E400CEF96EF0109000F04EF0180000
:1005F00001F0A0060EF0119000F02EF08EF90FFE23
:10060000CEF96EF0109000F04EF0190001F0A00647
:0C0610000EF0119000F02EF08EF90FFE9D
:04061C00CEF96EF0B5
:10062000109000F04EF01A0001F0A0060EF01190AC
:0806300000F02EF08EF90FFE20
:0E0C3200CEF96EF0109000F04EF01B0001F0B5
:0E0C4000A0060EF0119000F02EF08EF90FFEBF
:020BBE00CEF96E
:100BC0006EF0109000F04EF01C0001F0A0060EF048
:0A0BD000119000F02EF08EF90FFED8
:0400AC00CEF96EF02B
:1000B000109000F04EF01D0001F0A0060EF011901F
:0800C00000F02EF08EF90FFE96
:0403DC00CEF96EF0F8
:1003E000109000F04EF01E0001F0A0060EF01190EB
:0803F00000F02EF08EF90FFE63
:020008004E0C9C
:04000C00DA0B060005
:10001000F8011402A20B0600C800E4006A0B860B6C
:10002000BC0C0600160C060006000600A00CD80C3E
:100030000600060082029E02060006000600060078
:100040005603720306000600060006005402300242
:100050000600060006000600BA02680CD602840CF0
:100060008406E40500061C060600320C0600BE0BE2
:08007000AC0006000600DC03F1
:0606AA0001F01C0801F044
:0E06B0008E031290F0EF01401390F0EFF8CEA1
:02038E005A0013
:1003900011900EF081A00EF0FAC9A50011900EF098
:0203A0001FFE3E
:04081C00CEF880A0F2
:100820002AF0A0A02AF0B0A02AF0E0A02AF0F2A0BE
:100830002AF0000011902CF011902EF00F00119072
:100840002FF001F0380601F0FA0301F0180701F06B
:10085000F20201F0F60B01F0D40301F0BE06000035
:10086000119017F0119016F0119015F0119014F0EE
:10087000119013F0119012F0119011F0119010F0EE
:1008800011901FF011901EF011901DF011901CF0AE
:1008900011901BF011901AF0119019F0119018F0AE
:1008A000B2A017F0700202030F0001F0A20380A0B3
:1008B00014F0FC0208030C0001F0A203F0A012F0F7
:1008C000F0A01AF001F0D803030011900FF001F02E
:1008D0008E030D001190EEEF0A001190EFEF000073
:1008E0004EF040021F03010001F0BE0402E18EF24F
:0408FC00CEF801F041
:08090000080901F04C028EF21F
:04024C00010011900C
:04025000D1EF1FFECD
:0402700000F0000199
:0A0BF60082A002F092A002F0B0A06D
:100C000002F0A2A002F090A003F080A003F0F0A0F8
:060C100003F008ED1FFED9
:0806380082A051F292A051F2E0
:10064000A2A051F280A053F280A052F290A053F2E7
:1006500090A052F2A0A053F2A0A052F282A055F2B4
:1006600082A054F292A055F292A054F2A2A055F2A8
:10067000A2A054F282A050F292A050F2A2A050F296
:0406800000F08E03F5
:0603FA0082A059F292A05E
:1004000059F2A2A059F2B2A059F2C2A059F2D2A058
:1004100059F2E2A059F2F2A059F280A05BF280A05A
:100420005AF290A05BF290A05AF2A0A05BF2A0A0BA
:100430005AF2B0A05BF2B0A05AF2C0A05BF2C0A02A
:100440005AF2D0A05BF2D0A05AF2E0A05BF2E0A09A
:100450005AF2F0A05BF2F0A05AF282A05DF282A004
:100460005CF292A05DF292A05CF2A2A05DF2A2A06A
:100470005CF2B2A05DF2B2A05CF2C2A05DF2C2A0DA
:100480005CF2D2A05DF2D2A05CF2E2A05DF2E2A04A
:100490005CF2F2A05DF2F2A05CF282A058F292A0AF
:1004A00058F2A2A058F2B2A058F2C2A058F2D2A0BC
:0E04B00058F2E2A058F2F2A058F200F08E03CB
:0807180082A061F292A061F2DF
:10072000A2A061F2B2A061F2C2A061F2D2A061F215
:10073000E2A061F2F2A061F280A063F280A062F216
:1007400090A063F290A062F2A0A063F2A0A062F277
:10075000B0A063F2B0A062F2C0A063F2C0A062F2E7
:10076000D0A063F2D0A062F2E0A063F2E0A062F257
:10077000F0A063F2F0A062F282A065F282A064F2BF
:1007800092A065F292A064F2A2A065F2A2A064F227
:10079000B2A065F2B2A064F2C2A065F2C2A064F297
:1007A000D2A065F2D2A064F2E2A065F2E2A064F207
:1007B000F2A065F2F2A064F282A060F292A060F270
:1007C000A2A060F2B2A060F2C2A060F2D2A060F279
:0C07D000E2A060F2F2A060F200F08E03E4
:0E02F20082A069F292A069F2A2A069F2B2A005
:1003000069F2C2A069F2D2A069F280A06BF280A06B
:100310006AF290A06BF290A06AF2A0A06BF2A0A08B
:100320006AF2B0A06BF2B0A06AF2C0A06BF2C0A0FB
:100330006AF2D0A06BF2D0A06AF282A068F292A01A
:1003400068F2A2A068F2B2A068F2C2A068F2D2A0DD
:0603500068F200F08E03CC
:02000200F40CFC
:0800880048656C6C6F20576F96
:08009000726C642120200000C5
:0200000090EF7F
:02000400F60CF8
:0C0CF40001CEFFCE00E000E200E400E6CC
:100D00000008E0098AF0579088E8F079FCC1007883
:100D1000FAC15A0CA50D119C0EF081A00EF0FBC972
:100D2000119D0EF0000A0CF0A200AF905290FF70DF
:100D300002C8FF7120C9AF905292AF905294AF9009
:100D40005096AF90509780E4F0C901A20BC801A45F
:100D500009C86F90029882E07F90239882E2FEE4B7
:100D6000F8C8E3CE6F90009881E07F90219881E2EF
:100D7000FFE4F8C8DACE01F00A000000119000F09C
:040D800000F0AA06CF
:02000A001FFED7
:0800A2007800D2EF2A000000F3
:0200AA00FFFF56
:107FE000FFFFFFFFFFFFFFFFFFFFFFFFFFFFFFFFA1
:107FF000FFFFFFFFFFFFFFFFFFFFFFFFFFFFFFFF91
:10010000CEF85EFC109092F20120007034C812907C
:10011000F4EF1292F6EF27F019C9109096F208202A
:10012000007012C8129CF2EFC090119090F2C5F0CE
:1001300081E01390F2EF25F081E01390F6EF80A0BC
:1001400091F200E01EFC8EF27FE0FCCE109091F266
:10015000012000700EC81290F8EF09C905FC00E0FC
:100160001390F8EF1092FAEF1290F4EFC3F001E061
:10017000E9CE7EE0E7CE1290F4EF1292F6EF27F090
:100180002CC9109096F2072000821090FAEF23807D
:100190001190FAEF82A096F292A096F2A2A096F2A7
:1001A000129CF2EF109090F2C1901290F2EF81E069
:1001B0001390F2EF1290F6EF81E01390F6EF01A2A8
:1001C00009C81290F4EF1292F6EF27F006C900E08A
:1001D00000F04401010001F074021290F8EF09C927
:1001E00005FC00E01390F8EF1092FAEF1290F4EF94
:0801F000C3F001E000F044013E
:0C02740000821090D0EF23801190D0EF9A
:020280001FFE5F
:08009800000000000000000060
:0200A00000005E
:0C08F000CEF86EF801F0DC072EF88EF256
:0407DC00007302C8DC
:1007E00029F01BCE6EF405F825FA1D981C991D9A68
:1007F0001C9B007BFAC8A9F88084208844F83086C6
:1008000044F6618907F803C328883989FF14888072
:0C081000998105F2408000012EF41FFECB
:00000001FF
