:0E04C200CEF85EFE1AAE6EF86EF4008825FAD3
:1004D00044D0017006C37FE02EF42EF8EAA11EFE80
:1004E0008EF2007805C8500400056406000707CEA8
:1004F000017802C900F0DC0514E490060107A5F0BC
:1005000045F201F0620967F002C200002ECE45F00C
:100510002B912A9046F006F046F00A0229F005F2E7
:10052000A5F001F0620967F002C201001ECE45F09D
:1005300046F046F02B912A900A0229F005F2A5F028
:1005400001F0620967F002C202000FCE45F046F0EA
:1005500046F02B912A9046F00A0229F005F2A5F008
:1005600001F0620967F03DC20300008200001190B3
:10057000CEEF00E01390D0EF1390D2EF1390D4EFB2
:100580001390D6EF1390D8EF1390DAEF1190DCEFC1
:100590001190DDEF82A0A4F2D2A059F2D2A05AF2BB
:1005A000D0A05BF2D2A05CF2D0A05DF2E2A059F242
:1005B000E2A05AF2E0A05BF2E2A05CF2E0A05DF201
:1005C00080801A9020812A91038144D04A90138020
:1005D00001301190A4F200E000F0D8047EE000F0B9
:0805E000D8047DE000F0D8040E
:06097A00CEF85EFC5EF405
:100980001090A5F200811090DDEF0EC901701CC916
:10099000027002C800F09C0A037002C800F03C0B11
:1009A000047002C800F0900B1290DAEF09C905F448
:1009B00000E01390DAEF1092DCEF1290D8EF43F0E2
:1009C00001E01EF41EFC8EF210800420047017C893
:1009D00000001190DDEF02001190DCEF000011909B
:1009E000A3F21290DAEF09C905F400E01390DAEFF0
:1009F0001092DCEF1290D8EF43F001E0E2CE1080CD
:100A0000022002700AC800001190DDEF0100119071
:100A1000DCEF02001190A3F23ECE1290D2EF15C986
:100A200002001190DDEF129CD0EFC0901190A2F265
:100A3000C5F081E01390D0EF1290D2EFFFE0139059
:100A4000D2EF01001190A3F226CE1090CEEF0FC985
:100A500004001190DDEF01041290D6EFFFE0129236
:100A6000D8EF27F001C881041194A3F214CE03003B
:100A70001190DDEF129CD4EFC0901190A2F2C5F05E
:100A800081E01390D4EF1290D8EF81E01390D8EF6B
:100A900001001190A3F200E000F0C20910800220D2
:100AA00002700BC800001190DDEF01001190DCEF27
:100AB00002001190A3F200F0360B1290D2EF12C98F
:100AC000129CD0EFC0901190A2F2C5F081E013907B
:100AD000D0EF1290D2EFFFE01390D2EF010011900F
:100AE000A3F229CE1290D6EF07C800001190DDEFD7
:100AF00002001190A3F21FCE1090CEEF08C90100A2
:100B00001190DDEF80A0A1F2A0A0A3F214CE03000B
:100B10001190DDEF129CD4EFC0901190A2F2C5F0BD
:100B200081E01390D4EF1290D8EF81E01390D8EFCA
:100B300001001190A3F200E000F0C2091080022031
:100B4000027008C800001190DDEF01001190DCEF89
:100B5000020019CE1290D6EF1292D8EF27F00FC9EB
:100B6000129CD4EFC0901190A2F2C5F081E01390D6
:100B7000D4EF25F081E01390D8EF010004CE0000FF
:100B80001190DDEF02001190A3F200E000F0C20925
:040B9000129CD4EFF0
:0C0B94001090A0F2C1901290D4EF81E00C
:100BA0001390D4EF1290D8EF81E01390D8EF129009
:100BB000D6EF1292D8EF27F008C90104FFE027F022
:100BC00001C881041194A3F206CE00001190DDEF5C
:0C0BD00002001190A3F200E000F0C20946
:08007800000000000000000080
:08008000000000000000000078
:0A06F6005EF40000119011F0119065
:1007000012F0119013F0119014F0119015F0119057
:1007100016F0119017F0119018F0119019F0119037
:100720001AF011901BF011901CF011901DF0119017
:100730001EF011901FF000E445F046F0FC020303A8
:1007400009A28EEF81E41F740055F6C51EF41FFE4A
:0403DC0008ED1FFE0B
:0403D800F7EB1FFE22
:0A03A6006EF8008825FA1F7003C1ED
:1003B0007FE02EF81FFE25F206C98080000106F0BE
:1003C00009AA8EEF07CE8080000106F0FC0203032D
:0803D00009A28EEF00E0EDCE62
:020006000FFEEB
:0203FC001FFEE2
:0A06A400000106F008A08EEF02F03E
:100CC000CEFF6EF0109000F04EF0000001F0A40690
:0A0CD0000EF0119000F02EF08EFFE0
:040C4C00CEF96EF07F
:100C5000109000F04EF0010001F0A4060EF011908B
:080C600000F02EF08EF90FFEEA
:0401FC00CEF96EF0DA
:10020000109000F04EF0020001F0A4060EF01190E4
:0802100000F02EF08EF90FFE44
:08021800CEF96EF0109000F029
:100220004EF0030001F0A4060EF0119000F02EF045
:040230008EF90FFE36
:0C0C1400CEF96EF0109000F04EF00400DD
:100C200001F0A4060EF0119000F02EF08EF90FFEE8
:0400CC00CEF96EF00B
:1000D000109000F04EF0050001F0A4060EF0119013
:0800E00000F02EF08EF90FFE76
:0800E800CEF96EF0109000F05B
:1000F0004EF0060001F0A4060EF0119000F02EF074
:040100008EF90FFE67
:040BDC00CEF96EF0F0
:100BE000109000F04EF0070001F0A4060EF01190F6
:080BF00000F02EF08EF90FFE5B
:080BF800CEF96EF0109000F040
:100C00004EF0080001F0A4060EF0119000F02EF056
:040C10008EF90FFE4C
:020D2E00CEF9FC
:100D30006EF0109000F04EF0090001F0A4060EF0E5
:0A0D4000119000F02EF08EF90FFE66
:080C8800CEF96EF0109000F0AF
:100C90004EF00A0001F0A4060EF0119000F02EF0C4
:040CA0008EF90FFEBC
:0E0D1200CEF96EF0109000F04EF00B0001F0E4
:0E0D2000A4060EF0119000F02EF08EF90FFEDA
:060D4A00CEF96EF01090DE
:100D500000F04EF00C0001F0A4060EF0119000F02F
:060D60002EF08EF90FFEDB
:0A028600CEF96EF0109000F04EF07B
:100290000D0001F0A4060EF0119000F02EF08EF982
:0202A0000FFE4F
:0E02A200CEF96EF0109000F04EF00E0001F05C
:0E02B000A4060EF0119000F02EF08EF90FFE55
:06035A00CEF96EF01090D8
:1003600000F04EF00F0001F0A4060EF0119000F026
:060370002EF08EF90FFED5
:0A037600CEF96EF0109000F04EF08A
:10038000100001F0A4060EF0119000F02EF08EF98E
:020390000FFE5E
:08025800CEF96EF0109000F0E9
:100260004EF0110001F0A4060EF0119000F02EF0F7
:040270008EF90FFEF6
:0C023400CEF96EF0109000F04EF01200B9
:1002400001F0A4060EF0119000F02EF08EF90FFED2
:0202BE00CEF977
:1002C0006EF0109000F04EF0130001F0A4060EF056
:0A02D000119000F02EF08EF90FFEE1
:060CDA00CEF96EF010904F
:100CE00000F04EF0140001F0A4060EF0119000F098
:060CF0002EF08EF90FFE4C
:0602DA00CEF96EF0109059
:1002E00000F04EF0150001F0A4060EF0119000F0A1
:0602F0002EF08EF90FFE56
:0A0CF600CEF96EF0109000F04EF001
:100D0000160001F0A4060EF0119000F02EF08EF9FE
:020D10000FFED4
:08068800CEF96EF0109000F0B5
:100690004EF0170001F0A4060EF0119000F02EF0BD
:0406A0008EF90FFEC2
:0805E800CEF96EF0109000F056
:1005F0004EF0180001F0A4060EF0119000F02EF05D
:040600008EF90FFE62
:0C060400CEF96EF0109000F04EF01900DE
:1006100001F0A4060EF0119000F02EF08EF90FFEFE
:10062000CEF96EF0109000F04EF01A0001F0A40622
:0C0630000EF0119000F02EF08EF90FFE7D
:0C0CA400CEF96EF0109000F04EF01B0036
:100CB00001F0A4060EF0119000F02EF08EF90FFE58
:100C3000CEF96EF0109000F04EF01C0001F0A4060A
:0C0C40000EF0119000F02EF08EF90FFE67
:1000B000CEF96EF0109000F04EF01D0001F0A40695
:0C00C0000EF0119000F02EF08EF90FFEF3
:1003E000CEF96EF0109000F04EF01E0001F0A40661
:0C03F0000EF0119000F02EF08EF90FFEC0
:02000800C00C2A
:04000C004C0C060092
:10001000FC011802140C0600CC00E800DC0BF80B05
:100020002E0D0600880C060006000600120D4A0D73
:10003000060006008602A202060006000600060070
:100040005A03760306000600060006005802340232
:100050000600060006000600BE02DA0CDA02F60C04
:100060008806E805040620060600A40C0600300CED
:08007000B00006000600E003E9
:0206AE0001F059
:1006B000540801F0920300001190CCEF80A0F1F2F9
:1006C00002CE01F092031090CCEFFBC91090D2F251
:1006D00000016D906E911092D3F200032B932A9239
:1006E00006F21392EEEF1290ECEF01401390ECEF54
:0606F00080A009F0DECE3F
:0E0392005A0011900EF081A00EF0FAC9A500DD
:0603A00011900EF01FFE9B
:0C085400CEF880A02AF0A0A02AF0B0A0EE
:100860002AF0E0A02AF0F2A02AF0000011902CF06B
:1008700011902EF00F0011902FF001F03C0601F0C6
:10088000FE0301F0500701F0F60282A051F282A0AF
:1008900052F282A053F282A054F282A055F290A0AC
:1008A00051F290A0F2F282A0F0F201F0680C01F097
:1008B000D80301F0F6060000119017F0119016F021
:1008C000119015F0119014F0119013F0119012F096
:1008D000119011F0119010F011901FF011901EF076
:1008E00011901DF011901CF011901BF011901AF056
:1008F000119019F0119018F0B2A017F074020203D1
:100900000F0001F0A60380A014F06E0209030C0092
:1009100001F0A603F0A012F0F2A01AF05A020903A7
:100920000A0001F0A603A0A012F0A2A01AF001F0A4
:10093000DC03030011900FF001F092030D00119001
:10094000EAEF0A001190EBEF00004EF040021F03A7
:0A095000010001F0C20402E18EF282
:02096E00CEF8C1
:0A09700001F07A0901F050028EF246
:06095A0001001190CCEF3A
:020960001FFE78
:0802500001001190CDEF1FFE2B
:0402740000F0040191
:080C680082A002F092A002F04C
:100C7000B0A002F0A2A002F090A003F080A003F0C8
:080C8000F0A003F008ED1FFED7
:04063C0082A051F255
:1006400092A051F2A2A051F280A053F280A052F2E7
:1006500090A053F290A052F2A0A053F2A0A052F2A8
:1006600082A055F282A054F292A055F292A054F2C8
:10067000A2A055F2A2A054F282A050F292A050F291
:08068000A2A050F200F0920369
:0203FE0082A0DB
:1004000059F292A059F2A2A059F2B2A059F2C2A098
:1004100059F2D2A059F2E2A059F2F2A059F280A00A
:100420005BF280A05AF290A05BF290A05AF2A0A0DA
:100430005BF2A0A05AF2B0A05BF2B0A05AF2C0A04A
:100440005BF2C0A05AF2D0A05BF2D0A05AF2E0A0BA
:100450005BF2E0A05AF2F0A05BF2F0A05AF282A0A8
:100460005DF282A05CF292A05DF292A05CF2A2A08A
:100470005DF2A2A05CF2B2A05DF2B2A05CF2C2A0FA
:100480005DF2C2A05CF2D2A05DF2D2A05CF2E2A06A
:100490005DF2E2A05CF2F2A05DF2F2A05CF282A05A
:1004A00058F292A058F2A2A058F2B2A058F2C2A0FC
:1004B00058F2D2A058F2E2A058F2F2A058F200F09E
:0204C0009203A5
:1007500082A061F292A061F2A2A061F2B2A061F265
:10076000C2A061F2D2A061F2E2A061F2F2A061F255
:1007700080A063F280A062F290A063F290A062F287
:10078000A0A063F2A0A062F2B0A063F2B0A062F2F7
:10079000C0A063F2C0A062F2D0A063F2D0A062F267
:1007A000E0A063F2E0A062F2F0A063F2F0A062F2D7
:1007B00082A065F282A064F292A065F292A064F237
:1007C000A2A065F2A2A064F2B2A065F2B2A064F2A7
:1007D000C2A065F2C2A064F2D2A065F2D2A064F217
:1007E000E2A065F2E2A064F2F2A065F2F2A064F287
:1007F00082A060F292A060F2A2A060F2B2A060F2C9
:10080000C2A060F2D2A060F2E2A060F2F2A060F2B8
:0408100000F092035F
:0A02F60082A069F292A069F2A2A0B2
:1003000069F2B2A069F2C2A069F2D2A069F280A03B
:100310006BF280A06AF290A06BF290A06AF2A0A0AB
:100320006BF2A0A06AF2B0A06BF2B0A06AF2C0A01B
:100330006BF2C0A06AF2D0A06BF2D0A06AF282A0E9
:1003400068F292A068F2A2A068F2B2A068F2C2A01D
:0A03500068F2D2A068F200F09203F8
:02000200660D89
:0800880048656C6C6F20576F96
:0C009000726C64212020000000000000C1
:020000008AEF85
:02000400680D85
:0A0D660001CEFFCE00E000E200E441
:100D700000E60008E0098AF0579088E8F079FCC1A5
:100D80000078FAC15A0CA50D119C0EF081A00EF04E
:100D9000FBC9119D0EF0000A0CF0A600AF90529016
:100DA000FF7002C8FF7120C9AF905292AF90529469
:100DB000AF905096AF90509780E4F0C901A20BC855
:100DC00001A409C86F90029882E07F90239882E284
:100DD000FEE4F8C8E3CE6F90009881E07F90219800
:100DE00081E2FFE4F8C8DACE01F00A0000001190B9
:060DF00000F000F0AE0669
:02000A001FFED7
:0800A6007800CEEF2E000000EF
:0200AE00FFFF52
:107FE000FFFFFFFFFFFFFFFFFFFFFFFFFFFFFFFFA1
:107FF000FFFFFFFFFFFFFFFFFFFFFFFFFFFFFFFF91
:0C010400CEF85EFC109092F2012000701A
:1001100034C81290F4EF1292F6EF27F019C910903C
:1001200096F20820007012C8129CF2EFC090119055
:1001300090F2C5F081E01390F2EF25F081E013908A
:10014000F6EF80A091F200E01EFC8EF27FE0FCCE84
:10015000109091F2012000700EC81290F8EF09C9BA
:1001600005FC00E01390F8EF1092FAEF1290F4EF14
:10017000C3F001E0E9CE7EE0E7CE1290F4EF1292F8
:10018000F6EF27F02CC9109096F20720008210900D
:10019000FAEF23801190FAEF82A096F292A096F2E5
:1001A000A2A096F2129CF2EF109090F2C1901290E1
:1001B000F2EF81E01390F2EF1290F6EF81E01390EE
:1001C000F6EF01A209C81290F4EF1292F6EF27F0B1
:1001D00006C900E000F04801010001F07802129029
:1001E000F8EF09C905FC00E01390F8EF1092FAEF60
:0C01F0001290F4EFC3F001E000F04801B1
:08027800008210908AEF238040
:0602800011908AEF1FFE41
:04009C000000000060
:0600A0000000000000005A
:0C096200CEF86EF801F014082EF88EF2AA
:0C081400007302C829F01BCE6EF405F83A
:1008200025FA1D981C991D9A1C9B007BFAC8A9F8F3
:100830008084208844F8308644F6618907F803C331
:1008400028883989FF148880998105F24080000149
:040850002EF41FFE65
:00000001FF
